:1040000075D0089050007F107A007B007C007D0006
:104010007E007402113EEAF5207403114AEBF5218B
:1040200074051156ECF52274071162EDF523740B3B
:10403000116EEEF524A3DFDA75D000020057F5F01B
:10404000E084E5F0600280320A22F5F0E084E5F0D9
:10405000600280260B22F5F0E084E5F06002801A11
:104060000C22F5F0E084E5F06002800E0D22F5F000
:0B407000E084E5F0600280020E2222D6
:105000004EC0F3235F91B9EB4D85A1BDD9E74DBBF0
:00000001FF
